:100000000C944E000C946D000C946D000C946D00DB
:100010000C946D000C946D000C946D000C946D00AC
:100020000C946D000C946D000C946D000C946D009C
:100030000C946D000C946D000C946D000C946D008C
:100040000C946D000C946D000C946D000C946D007C
:100050000C946D000C946D000C946D000C946D006C
:100060000C946D000C946D000C946D000C946D005C
:100070000C946D000C946D000C946D000C946D004C
:100080000C946D000C946D000C946D00E401EB0178
:10009000F201F901000207020E02150211241FBE2F
:1000A000CFEFD0E4DEBFCDBF11E0A0E0B1E0E8E5E6
:1000B000F8E000E00BBF02C007900D92AE30B10730
:1000C000D9F721E0AEE0B1E001C01D92A731B2073F
:1000D000E1F70E945C020C942A040C940000CF9378
:1000E000DF9300D01F92CDB7DEB789837B836A830D
:1000F00089818A3031F48A819B81BC018DE00E9424
:100100006F0080EC90E0FC018081882F90E080728D
:100110009927892BB1F386EC90E02981FC0120839B
:1001200080E090E00F900F900F90DF91CF910895B5
:100130000F931F93CF93DF9300D000D0CDB7DEB7DE
:1001400069837A838B839C8380910E0190910F0148
:10015000A0911001B09111019C01AD0169817A81DA
:100160008B819C810E949602882309F477C020E04D
:1001700030E0A90169817A818B819C810E9496027D
:10018000882351F481E990E021E930E0F9012081F0
:100190002870FC01208309C081E990E021E930E06A
:1001A000F90120812360FC01208328E539E344E73D
:1001B0005FE369817A818B819C810E94960288230A
:1001C00044F488E990E02FEF3FEFFC013183208376
:1001D00034C020E034E244EF56E469817A818B81B7
:1001E0009C810E94B803181634F488E990E0FC0161
:1001F0001182108222C008E910E020E030E040E0E7
:1002000053E469817A818B819C810E94BD03DC016A
:10021000CB019C01AD0160E074E284EF9AE40E949E
:100220009B02DC01CB01BC01CD010E940D03DC016E
:10023000CB010197F8019183808384E990E0FC0170
:100240001182108289819A81AB81BC8180930E01D9
:1002500090930F01A0931001B093110100000F9033
:100260000F900F900F90DF91CF911F910F910895F4
:10027000CF93DF93CDB7DEB780E990E020E4FC01B7
:10028000208381E990E02BE0FC01208360E070E0B6
:10029000CB010E9498000000DF91CF910895CF9389
:1002A000DF93CDB7DEB780E990E0FC01108281E9F1
:1002B00090E0FC0110820000DF91CF910895CF9370
:1002C000DF93CDB7DEB78091120190911301823098
:1002D000910509F463C08330910528F4009779F003
:1002E0000197D9F1E5C08430910509F4BDC084308F
:1002F000910508F4A9C0059709F4CEC0D9C0809132
:100300001601882F90E081709927892B39F081E0C0
:1003100090E09093130180931201C7C08091160161
:10032000882F90E082709927892B39F084E090E043
:100330009093130180931201B8C080911601882F09
:1003400090E084709927892B09F4AFC083E090E096
:100350009093130180931201A8C080911401882307
:1003600051F482E090E0909313018093120181E0B8
:10037000809314019CC080911401813009F097C0D2
:1003800060E070E0CB010E94980085E090E09093DF
:100390001301809312011092140189C080911501FC
:1003A000882F90E0092E000CAA0BBB0B41E050E017
:1003B00027E030E0841B950B28173907E8F18A5BAA
:1003C0009F4FFC010C948D0264EA70ED82E893E487
:1003D0000E94980032C06BE774ED82E993E40E94BA
:1003E00098002BC064EA70ED84EA93E40E949800C0
:1003F00024C061E77DE98EEA93E40E9498001DC065
:1004000060E070E084EC93E40E94980016C060E025
:1004100070E08CED93E40E9498000FC064EA70EFE6
:1004200086EF93E40E94980008C060E070ED82E0DF
:1004300094E40E94980001C0000085E090E0909351
:1004400013018093120134C080911501883029F086
:10045000809115018F5F8093150182E090E0909369
:1004600013018093120124C080911501813029F07D
:100470008091150181508093150182E090E0909366
:1004800013018093120114C080E290E0FC0180818E
:1004900080958F7080931601809116018823A1F7B3
:1004A000109213011092120103C0000001C000005D
:1004B0000000DF91CF910895CF93DF93CDB7DEB7E2
:1004C00081E290E0FC01108282E290E02FEFFC01DB
:1004D000208384E290E02FE4FC01208385E290E019
:1004E000FC011082109213011092120181E080939E
:1004F0001501109214010E94380160E070E0CB01F8
:100500000E94980080E290E0FC01808180958F70CD
:10051000809316010E945F01F5CFEE0FFF1F0024AC
:10052000001C0BBE0790F691E02D09940E94430336
:1005300008F481E008950E94AF020C947E030E94AB
:10054000770358F00E94700340F029F45F3F29F0D0
:100550000C94670351110C94B2030C946D030E9428
:100560008F0368F39923B1F3552391F3951B550B32
:10057000BB27AA2762177307840738F09F5F5F4F76
:10058000220F331F441FAA1FA9F335D00E2E3AF0B5
:10059000E0E832D091505040E695001CCAF72BD0CD
:1005A000FE2F29D0660F771F881FBB1F261737071E
:1005B0004807AB07B0E809F0BB0B802DBF01FF2750
:1005C00093585F4F3AF09E3F510578F00C946703C3
:1005D0000C94B2035F3FE4F3983ED4F3869577958D
:1005E0006795B795F7959F5FC9F7880F911D969509
:1005F000879597F90895E1E0660F771F881FBB1F65
:10060000621773078407BA0720F0621B730B840B11
:10061000BA0BEE1F88F7E09508950E9414036894C2
:10062000B1110C94B20308950E94970388F09F576C
:1006300098F0B92F9927B751B0F0E1F0660F771F06
:10064000881F991F1AF0BA95C9F714C0B13091F0FC
:100650000E94B103B1E008950C94B103672F782F85
:100660008827B85F39F0B93FCCF3869577956795C1
:10067000B395D9F73EF490958095709561957F4F2D
:100680008F4F9F4F0895990F0008550FAA0BE0E870
:10069000FEEF16161706E807F907C0F01216130644
:1006A000E407F50798F0621B730B840B950B39F484
:1006B0000A2661F0232B242B252B21F408950A26EA
:1006C00009F4A140A6958FEF811D811D089597F92A
:1006D0009F6780E870E060E008959FEF80EC0895E8
:1006E00000240A9416161706180609060895002411
:1006F0000A9412161306140605060895092E03948B
:10070000000C11F4882352F0BB0F40F4BF2B11F4FE
:1007100060FF04C06F5F7F4F8F4F9F4F089557FD5D
:100720009058440F551F59F05F3F71F04795880F5F
:1007300097FB991F61F09F3F79F0879508951216F6
:1007400013061406551FF2CF4695F1DF08C01616A2
:1007500017061806991FF1CF869571056105089453
:100760000895E894BB2766277727CB0197F908956A
:100770000E94430308F48FEF08950E94D0030C9465
:100780007E030E94700338F00E94770320F09523C7
:1007900011F00C9467030C946D0311240C94B203B4
:1007A0000E948F0370F3959FC1F3950F50E0551F82
:1007B000629FF001729FBB27F00DB11D639FAA27B6
:1007C000F00DB11DAA1F649F6627B00DA11D661F05
:1007D000829F2227B00DA11D621F739FB00DA11D26
:1007E000621F839FA00D611D221F749F3327A00DE0
:1007F000611D231F849F600D211D822F762F6A2F7C
:1008000011249F5750409AF0F1F088234AF0EE0FE0
:10081000FF1FBB1F661F771F881F91505040A9F70D
:100820009E3F510580F00C9467030C94B2035F3F28
:10083000E4F3983ED4F3869577956795B795F79549
:10084000E7959F5FC1F7FE2B880F911D96958795C1
:0808500097F90895F894FFCF19
:0E08580000000002000000006F000000000021
:00000001FF
